:100000000C9446000C9465000C9465000C946500FB
:100010000C9465000C9465000C9465000C946500CC
:100020000C9465000C9465000C9465000C946500BC
:100030000C9465000C9465000C9465000C946500AC
:100040000C9465000C9465000C9465000C9465009C
:100050000C9465000C9465000C9465000C9465008C
:100060000C9465000C9465000C9465000C9465007C
:100070000C9465000C9465000C9465000C9465006C
:100080000C9465000C9465000C94650011241FBE4F
:10009000CFEFD0E4DEBFCDBF11E0A0E0B1E0EEE8ED
:1000A000F2E000E00BBF02C007900D92A631B1074D
:1000B000D9F721E0A6E1B1E001C01D92AA31B20753
:1000C000E1F70E942C010C9445010C940000CF93A1
:1000D000DF9300D00F92CDB7DEB789837B836A832D
:1000E00089818A3031F48A819B81BC018DE00E9434
:1000F000670080EC90E0FC018081882F90E08072A6
:100100009927892BB1F386EC90E02981FC012083AB
:1001100080E090E00F900F900F90DF91CF910895C5
:10012000CF93DF930F92CDB7DEB780E290E0FC0172
:100130008081882F90E08170992721E0892B09F038
:1001400020E0298380911801909119018330910555
:1001500031F184309105A0F582309105C1F18330F1
:10016000910570F5009719F0019741F029C081E0E1
:1001700090E090931901809318012AC08981882307
:1001800039F082E090E0909319018093180120C02B
:1001900081E090E0909319018093180119C0898142
:1001A000882339F083E090E090931901809318013F
:1001B0000FC081E090E0909319018093180108C06E
:1001C00081E090E0909319018093180101C0000034
:1001D00080911801909119018330910559F1843073
:1001E000910550F58230910541F08330910520F55D
:1001F000009721F1019721F11FC080911601882FEE
:1002000090E0825F9E4FFC01808180931701809176
:100210001601873030F4809116018F5F80931601AC
:1002200002C01092160183E090E090931901809330
:10023000180107C0000005C0000003C0000001C095
:10024000000085E290E020911701FC01208300006E
:100250000F90DF91CF910895CF93DF93CDB7DEB7A5
:1002600081E290E0FC01108282E290E02FEFFC013D
:10027000208384E290E02FEFFC01208385E290E070
:0E028000FC0110820E949000FDCFF894FFCF89
:10028E0000000002000000006700000000000306EE
:06029E000C1830152A00C7
:00000001FF
